:100000000C9446000C9465000C9465000C946500FB
:100010000C9465000C9465000C9465000C946500CC
:100020000C9465000C9465000C9465000C946500BC
:100030000C9465000C9465000C9465000C946500AC
:100040000C9465000C9465000C9465000C9465009C
:100050000C9465000C9465000C9465000C9465008C
:100060000C9465000C9465000C9465000C9465007C
:100070000C9465000C9465000C9465000C9465006C
:100080000C9465000C9465000C94650011241FBE4F
:10009000CFEFD0E1DEBFCDBF11E0A0E0B1E0E2E103
:1000A000F7E000E00BBF02C007900D92AA32B10743
:1000B000D9F711E0AAE2B1E001C01D92AA32B1075E
:1000C000E1F70E94DF000C9488030C940000CF93AA
:1000D000DF93CDB7DEB723970FB6F894DEBF0FBE20
:1000E000CDBF8B831A821982E7E2F0E08B81806CAE
:1000F0008083E6E2F0E087EA8083A6E2B0E0E6E211
:10010000F0E0808180648C93E6E2F0E080819927C2
:10011000807190700097C1F3A6E2B0E0E6E2F0E0F3
:10012000808180618C93E4E2F0E0808199279A835A
:100130008983E5E2F0E080819927982F88279C0148
:1001400089819A81822B932B9A838983E7E2F0E05D
:100150001082E6E2F0E0108289819A8123960FB640
:10016000F894DEBF0FBECDBFDF91CF910895CF933E
:10017000DF93CDB7DEB722970FB6F894DEBF0FBE80
:10018000CDBF9A838983EBE2F0E08081992780726A
:1001900090700097C1F3ECE2F0E089818083ABE2DC
:1001A000B0E0EBE2F0E0808180628C9322960FB6A3
:1001B000F894DEBF0FBECDBFDF91CF910895CF93EE
:1001C000DF93CDB7DEB72D970FB6F894DEBF0FBE25
:1001D000CDBF1B8680E092E09A87898718861F82B0
:1001E0000E945F030E94F60289859A85BC0181E422
:1001F0000E941A0383E00E941C020E9451028B8716
:100200008B85282F33273D872C874C855D85433789
:10021000510509F488C08C859D85843791058CF43F
:100220002C853D852736310509F44DC04C855D850B
:100230004A365105C1F18C859D858236910519F1AB
:1002400080C02C853D852537310509F45CC04C857F
:100250005D85453751050CF446C08C859D858937F1
:10026000910509F06EC0ABE3B0E0EBE3F0E0908104
:1002700080EF89238C93ABE3B0E0EBE3F0E0808187
:1002800086608C935EC0ABE3B0E0EBE3F0E090817E
:1002900080EF89238C93ABE3B0E0EBE3F0E0808167
:1002A00089608C934EC0ABE3B0E0EBE3F0E090816B
:1002B00080EF89238C93ABE3B0E0EBE3F0E0808147
:1002C00082608C933EC0ABE3B0E0EBE3F0E0908162
:1002D00080EF89238C93ABE3B0E0EBE3F0E0808127
:1002E00084608C932EC0ABE3B0E0EBE3F0E0908150
:1002F00080EF89238C93ABE3B0E0EBE3F0E0808107
:100300008A608C931EC0ABE3B0E0EBE3F0E0908139
:1003100080EF89238C93ABE3B0E0EBE3F0E08081E6
:1003200085608C930EC0ABE3B0E0EBE3F0E090812E
:1003300080EF89238C93ABE3B0E0EBE3F0E08081C6
:100340008C9380E00E94670098878F831E821D82B5
:1003500013C08E819927880F991FFC01E050FF4F31
:10036000208131818F8198858217930740F48E8197
:100370008D838E818F5F8E838E818E3050F38E8140
:100380009927FC01E45EFE4F20818D819927FC01B5
:10039000E45EFE4F8081922F981B892F8A838D8186
:1003A0009927880F991FFC01E050FF4F2081318170
:1003B0008E819927880F991FFC01E050FF4F8081A3
:1003C0009181A901481B590BCA019C838B838A81A7
:1003D000282F33278B819C81B9010E947403CB01A4
:1003E00089838D819927880F991FFC01E050FF4F69
:1003F000208131818F819885A901481B590B898102
:10040000282F3327CA01B9010E947403CB019C0134
:100410008D819927FC01E45EFE4F80819927820F30
:10042000931F98878F838F8198850E94B70084E6F9
:1004300090E00E94C102E1CECF93DF93CDB7DEB74B
:1004400021970FB6F894DEBF0FBECDBF8983A1E31D
:10045000B0E0E1E3F0E090818BEF89238C93A1E39E
:10046000B0E0E1E3F0E0808188608C93EBE2F0E0C3
:100470001082EAE2F0E088E18083E5E9F0E086E0DE
:100480008083E0E9F0E01082E9E2F0E08981808396
:1004900021960FB6F894DEBF0FBECDBFDF91CF918E
:1004A0000895CF93DF93CDB7DEB721970FB6F894B9
:1004B000DEBF0FBECDBFEBE2F0E080818823DCF72A
:1004C000ECE2F0E080818983ABE2B0E0EBE2F0E0C7
:1004D000808180688C938981992721960FB6F89442
:1004E000DEBF0FBECDBFDF91CF910895CF93DF93D5
:1004F000CDB7DEB721970FB6F894DEBF0FBECDBFE4
:100500008983EBE2F0E080819927807290700097F8
:10051000C1F3ECE2F0E089818083ABE2B0E0EBE292
:10052000F0E0808180628C9321960FB6F894DEBF54
:100530000FBECDBFDF91CF910895CF93DF93CDB79D
:10054000DEB723970FB6F894DEBF0FBECDBF9A83F8
:1005500089831B8205C00F920F908B818F5F8B83E5
:100560008B81282F332789819A812817390798F39F
:1005700023960FB6F894DEBF0FBECDBFDF91CF91AB
:100580000895CF93DF93CDB7DEB724970FB6F894D5
:10059000DEBF0FBECDBF9A8389831C821B8216C02B
:1005A0008AEF90E00E949D028AEF90E00E949D02F7
:1005B0008AEF90E00E949D028AEF90E00E949D02E7
:1005C0002B813C812F5F3F4F3C832B8389819A8114
:1005D0002B813C812817390718F324960FB6F8941D
:1005E000DEBF0FBECDBFDF91CF910895CF93DF93D4
:1005F000CDB7DEB7AFE4B0E0EFE4F0E08081836A2E
:100600008C93AEE4B0E0EEE4F0E0808182608C9305
:10061000EAE7F0E01082ECE4F0E011821082EAE414
:10062000F0E011821082E8E4F0E011821082DF91A4
:10063000CF910895CF93DF93CDB7DEB725970FB64F
:10064000F894DEBF0FBECDBF89837B836A83898127
:10065000282F33273D832C838C819D818C349105F9
:1006600091F02C813D812235310531F08C819D81C5
:100670008134910579F01AC0EAE4F0E08A819B8127
:100680009183808313C0E8E4F0E08A819B819183A9
:1006900080830CC0EAE4F0E08A819B8191838083AF
:1006A000E8E4F0E08A819B819183808325960FB6F0
:1006B000F894DEBF0FBECDBFDF91CF910895CF93E9
:1006C000DF93CDB7DEB7EAE3F0E08FE08083EBE3C2
:1006D000F0E01082E7E3F0E08FEF8083E8E3F0E002
:1006E0001082DF91CF910895AA1BBB1B51E107C077
:1006F000AA1FBB1FA617B70710F0A61BB70B881FB2
:10070000991F5A95A9F780959095BC01CD01089540
:02071000FFCF19
:10071200E90200028D014B011B01FF00E000C8004D
:10072200BC00AB00A400970074006E000A0F1419FD
:0A0732001E23282D32373C41464BB0
:00000001FF
